:020000040800F2
:1000000030B30020251300082D1300082F1300081B
:1000100031130008331300083513000800000000F6
:10002000000000000000000000000000371300087E
:1000300039130008000000003B1300083D130008BE
:10004000F3350008BF2C0008013000082D2E0008F1
:100050009D210008292E00083D20000841200008AD
:100060004320000845200008472000083D1E0008E6
:100070003F1E0008411E0008431E0008451E0008E0
:10008000471E0008491E0008131B00083F13000804
:100090003F1300083F1300083F13000849200008E1
:1000A0000330000809300008073000080530000858
:1000B0000B3000080D3000080F30000863270008DF
:1000C000612700086727000865270008312E00080F
:1000D000332E0008A73100089D3200089F32000827
:1000E0003F2000082B2E00082B3400081730000892
:1000F0001D3000081B30000819300008151B0008CF
:10010000372200082F2E000811300008352E000875
:10011000A3310008A531000813300008153000088D
:100120004B1E00084D1E00084F1E0008511E0008FF
:10013000DFF80CD001F08CFC00480047614A000851
:1001400030B300202DE9F04F4FF0000C4FF00003CA
:1001500001EB9C5EBEF90250BEF900400EF5806EC8
:10016000BEF90290BEF900800EF5806EBEF90270F5
:10017000BEF900600EF5806EBEF902B0BEF900A0B7
:100180000EF5806ED044D944A8EB4A0AA9EB4B0B7C
:100190004FEAA4044FEAA50504EBA60405EBA70566
:1001A000A4EB6606A5EB670704EBA80405EBA9051D
:1001B000A4EB6808A5EB690906EBAB06A7EBAA0759
:1001C000A6EB6B0B07EB6A0A458020F8044B4780CF
:1001D00020F8046BA0F8029020F8048BA0F802A08D
:1001E00020F804BB03F1010393FAA3FCB3F5807F6D
:1001F000AED1A0EB82014FF0100312090FF23410C0
:1002000000F1000006B403EB430C6144A2F5803218
:1002100002EB8332B1F90250B1F90040A1EB0301C6
:10022000B0F902B0B0F900A000F10400A5EB040E93
:100230000EFB0BFC0AEB4B0E05FB0ACB04FB0ECAB4
:10024000B1F90250B1F90040A1EB0301B0F90290FD
:10025000B0F9008000F10400A5EB040E0EFB09FCD0
:1002600008EB490E05FB08C904FB0EC8B1F90250A2
:10027000B1F90040A1EB0301B0F90270B0F90060E0
:1002800000F10400A5EB040E0EFB07FC06EB470E85
:1002900005FB06C704FB0EC6B1F90250B1F90040D8
:1002A00001F10001D044D944A8EB4A0AA9EB4B0B59
:1002B0004FEAA4044FEAA50504EB264405EB2745C5
:1002C000A4EBE636A5EBE73704EB284405EB29451C
:1002D000A4EBE838A5EBE93906EB2B46A7EB2A4758
:1002E000A6EBEB3B07EBEA3A4D800C8019444F80BC
:1002F0000E801944A1F80290A1F800801944A1F8D9
:1003000002A021F804BBB2F5803283DA03EB430C80
:100310006144A2F101025FEA024E18BFA0EB0C009B
:100320007FF476AF06BC4FEA830392087FF46AAF8E
:10033000BDE8F08F004000000040000000400000D9
:100340005DDD213BA3227E180000412D7EA5412DBD
:100350000000412D00C000405DDD82E75DDD213BF6
:100360007EA5412D0040000000400000004000003C
:10037000AA2A94126B39460649327C0CA8118E23A6
:1003800049327C0CA3227E1821F77931AA2A9412D3
:10039000A8118E235DDD213BA3227E180000412D94
:1003A00095C6B13F461A2B1E58EE3735BEB4C53E32
:1003B000A8118E235DDD213B63A97138DF089A28DF
:1003C000B7CDC53E7EA5412D0000412D00C00040A7
:1003D00063A92B1E21F77931BEB4C53EBEB47C0C97
:1003E00058EE373561AC213B95C6BAF9BAE571389C
:1003F0003BA737355DDD82E75DDD213B7EA5412DE5
:1004000021F766D756D53F3D3BA78E23A811C9CA11
:10041000B7CDC53E61AC7E18AA2AC1C295C6B13F10
:10042000BEB47C0C00400000004000000040000012
:100430001E3BB504693E9201C83C2403EB356409B8
:10044000C83C24036B3946066C30060E1E3BB504CF
:10045000EB356409AA2A94126B39460649327C0CA2
:10046000AE240917AF37D607882E8D0F7E1E5D1B71
:10047000EB356409AA2A941224188C1F1E34F10A41
:10048000B3269015A8118E2349327C0CA3227E1826
:10049000140B60276C30060E7E1E5D1B7104FB2A58
:1004A000882E8D0F461A2B1EC7FD5A2E9D2C121119
:1004B000FE15E72021F77931AA2A9412A8118E237C
:1004C00087F05334B2281314480D202602EAE5368B
:1004D000B3269015DF089A289CE32B39AE24091720
:1004E0007104FB2A5DDD213BA3227E180000412D13
:1004F0004ED7C53C9320EF198FFB6C2F78D1153E5A
:100500007E1E5D1B21F77931E2CB0F3F641CC61CB8
:10051000B8F2683395C6B13F461A2B1E58EE3735F0
:1005200097C1FB3F24188C1F02EAE536F0BCEC3F74
:10053000FE15E720BAE57138A6B8853FD5133D22F0
:1005400082E1DB39BEB4C53EA8118E235DDD213BBF
:1005500040B1AF3D790FDA244DD9423C2EAE423C3A
:10056000480D202656D53F3D8EAB823A140B6027AE
:1005700078D1153E63A97138DF089A28B7CDC53EFA
:10058000B1A71236A906CE2915CA4F3F78A66833FF
:100590007104FB2A95C6B13FBCA576303902212CE7
:1005A00038C3EC3F7EA5412D0000412D00C0004026
:1005B000BCA5CE29C7FD5A2EF0BCEC3F78A620265C
:1005C0008FFB6C2F09BAB13FB1A73D2257F97630A6
:1005D0004DB74F3F63A92B1E21F77931BEB4C53EFD
:1005E0008EABEF19ECF474325EB2153E2EAE901560
:1005F000B8F268332DB03F3D40B1121187F053344B
:100600002EAE423CBEB47C0C58EE373561AC213B7B
:10061000A6B8D6072BEC1236C8AADB39F0BC2403E7
:1006200002EAE53663A9713897C16EFEDCE7B037A0
:1006300034A8E53695C6BAF9BAE571383BA737351F
:10064000E2CB0FF59CE32B3978A6683378D173F0B1
:1006500082E1DB39EDA579314ED7EDEB6DDF823AE2
:1006600099A56C2F5DDD82E75DDD213B7EA5412DE7
:100670009CE33AE352DBB63B99A5FB2A02EA19DF79
:100680004DD9423CEDA59A2887F026DB4ED7C53CD4
:1006900078A6202621F766D756D53F3D3BA78E2367
:1006A000C7FDDFD363D3AF3D34A8E720710494D0F6
:1006B00078D1153E63A92B1E140B8CCD94CF723EBE
:1006C000C8AA5D1BA811C9CAB7CDC53E61AC7E18CA
:1006D000241850C8E2CB0F3F2EAE90157E1E25C6C3
:1006E00015CA4F3F2DB09412AE244AC451C8853F5D
:1006F0005EB28D0FAA2AC1C295C6B13FBEB47C0CB2
:100700006C308EC1E2C4D43F4DB76409EB35B1C043
:1007100038C3EC3F09BA46061E3B2CC097C1FB3FCD
:10072000F0BC240300400000004000000040000036
:10073000D03E2E019B3F6500363FC9009A3D5B02CB
:10074000363FC900693E92015F3C8803D03E2E01CE
:100750009A3D5B021E3BB504693E9201C83C2403EE
:10076000D939E205023EF701F43BED038E380E075E
:100770009A3D5B021E3BB5043F373908313DC0024C
:10078000463A7E05EB356409C83C24036B394606BE
:1007900092348E0A5F3C88038E380E073433B70BD1
:1007A000F43BED03AF37D607D231DF0C8A3B51045F
:1007B000CE369D086C30060E1E3BB504EB35640941
:1007C000022F2B0FB23A1A0505352B0A932D501024
:1007D000463A7E051E34F10A212C7311D939E205FF
:1007E0003433B70BAA2A94126B39460649327C0C73
:1007F0003129B413FD38AA065B31410DB327D21459
:100800008E380E076C30060E3226EE151F38720732
:100810007B2FCA0EAE240917AF37D607882E8D0F4F
:10082000262321183F373908932D50109C21371962
:10083000CE369D089D2C12110E204B1A5D360109F3
:10084000A42BD3117E1E5D1BEB356409AA2A9412DA
:10085000EB1C6C1C7835C709AF295413561B791D46
:1008600005352B0AB2281314BE19841E92348E0A41
:10087000B327D21424188C1F1E34F10AB326901506
:1008800088169120A933540BB1254C16EA149321F4
:100890003433B70BAE2409174A139222BF321A0C15
:1008A000A923C417A8118E2349327C0CA3227E18D9
:1008B00005108824D231DF0C9C213719610E7E256A
:1008C0005B31410D9320EF19BB0C7126E430A40D70
:1008D000891FA71A140B60276C30060E7E1E5D1B45
:1008E0006D094C28F42F680E721D121CC40735299F
:1008F0007B2FCA0E641CC61C1B061A2A022F2B0F44
:10090000561B791D7104FB2A882E8D0F461A2B1E4B
:10091000C702D82B0E2EEE0F3519DC1E1C01B22C8F
:10092000932D501024188C1F72FF882D182DB11094
:1009300011173A20C7FD5A2E9D2C1211FE15E720E3
:100940001DFC282F212C7311EA14932173FAF22F26
:10095000A42BD311D5133D22CAF8B830282B34125A
:10096000BF12E72221F77931AA2A9412A8118E2307
:1009700079F536322D2AF41291103524D2F3EF3264
:10098000AF295413790FDA242CF2A3333129B4138D
:10099000610E7E2587F05334B2281314480D2026AB
:1009A000E3EEFF34332873142E0CC12641EDA53538
:1009B000B327D214140B6027A1EB48363327311527
:1009C000FA09FE2702EAE536B3269015DF089A28D1
:1009D00065E87E373226EE15C4073529CBE6123896
:1009E000B1254C16A906CE2932E5A1382F25AB1624
:1009F0008D05652A9CE32B39AE2409177104FB2A67
:100A000008E2B0392B24661755038F2B77E0303A74
:100A1000A923C4173902212CE9DEAB3A2623211879
:100A20001C01B22C5DDD213BA3227E180000412D6C
:100A3000D5DB923B1F22DB18E4FECF2D4FDAFD3BC6
:100A40009C213719C7FD5A2ECDD8643C1721931924
:100A5000ABFCE42E4ED7C53C9320EF198FFB6C2FD7
:100A6000D3D5213D0E204B1A73FAF22F5CD4783D7A
:100A7000891FA71A57F97630E8D2C93D041F021B17
:100A80003CF8F93078D1153E7E1E5D1B21F7793197
:100A90000CD05C3EF81DB81B06F6F831A5CE9D3E85
:100AA000721D121CECF4743241CDD83EEB1C6C1C50
:100AB000D2F3EF32E2CB0F3F641CC61CB8F26833AE
:100AC00088CA403FDD1B201D9FF1DF3332C96B3FD9
:100AD000561B791D87F05334E1C7913FCE1AD31DC1
:100AE0006FEFC63495C6B13F461A2B1E58EE373508
:100AF0004EC5CC3FBE19841E41EDA5350CC4E13F67
:100B00003519DC1E2BEC1236CFC2F13FAD18341F65
:100B100016EB7D3697C1FB3F24188C1F02EAE536A1
:100B200065C000409B17E31FEFE84B3738BFFF3F1E
:100B300011173A20DCE7B03711BEF83F8816912034
:100B4000CBE61238F0BCEC3FFE15E720BAE5713871
:100B5000D4BBDB3F74153D21AAE4CF38BFBAC43FF4
:100B6000EA1493219CE32B39AFB9A73F5F14E82126
:100B70008EE28439A6B8853FD5133D2282E1DB3968
:100B8000A2B75D3F4A13922277E0303AA5B6303FD4
:100B9000BF12E7226DDF823AAFB5FD3E34123B2330
:100BA00064DED33ABEB4C53EA8118E235DDD213B81
:100BB000D5B3883E1D11E22357DC6D3BF2B2453EB2
:100BC0009110352452DBB63B15B2FC3D051088244C
:100BD0004FDAFD3B40B1AF3D790FDA244DD9423CAD
:100BE00071B05B3DED0E2C254DD8853CA9AF033D82
:100BF000610E7E254ED7C53CE8AEA53CD40DCF2571
:100C000051D6033D2EAE423C480D202656D53F3DE1
:100C10007BADDA3BBB0C71265CD4783DD0AC6D3B30
:100C20002E0CC12663D3AF3D2BACFA3AA10B112792
:100C30006DD2E33D8EAB823A140B602778D1153E1E
:100C4000F8AA063A870AAF2785D0453E6AAA8439B2
:100C5000FA09FE2794CF723EE3A9FD386D094C28AE
:100C6000A5CE9D3E63A97138DF089A28B7CDC53E51
:100C7000EBA8E1375208E728CCCCEB3E7BA84B37FA
:100C8000C4073529E2CB0F3F12A8B13636078129B8
:100C9000FBCA303FB1A71236A906CE2915CA4F3F6D
:100CA00057A76E351B061A2A32C96B3F05A7C634F3
:100CB0008D05652A51C8853FBBA61934FF04B02AAB
:100CC00072C79C3F78A668337104FB2A95C6B13F72
:100CD0003EA6B232E303452BBAC5C43F0BA6F8319A
:100CE00055038F2BE2C4D43FE0A53931C702D82B7E
:100CF0000CC4E13FBCA576303902212C38C3EC3F4F
:100D0000A1A5AF2FAA016A2C66C2F53F8DA5E42EDE
:100D10001C01B22C97C1FB3F81A5152E8E00FA2C29
:100D2000CAC0FF3F7EA5412D0000412D00C00040FC
:100D300081A56A2C72FF882D38BFFF3F8DA58F2BB0
:100D4000E4FECF2D73BEFB3FA1A5B02A56FE152EA3
:100D5000B0BDF53FBCA5CE29C7FD5A2EF0BCEC3F77
:100D6000E0A5E72839FD9F2E32BCE13F0BA6FE2708
:100D7000ABFCE42E77BBD43F3EA611271DFC282FE9
:100D8000BFBAC43F78A620268FFB6C2F09BAB13FAB
:100D9000BBA62C2501FBAF2F56B99C3F05A73524D8
:100DA00073FAF22FA6B8853F57A73B23E5F93430F5
:100DB000F8B76B3FB1A73D2257F976304DB74F3F9B
:100DC00012A83D21CAF8B830A5B6303F7BA83A201A
:100DD0003CF8F93000B60F3FEBA8341FAEF73931BD
:100DE0005EB5EB3E63A92B1E21F77931BEB4C53E3B
:100DF000E3A9201D93F6B93122B49D3E6AAA121CC4
:100E000006F6F83188B3723EF8AA021B79F536323D
:100E1000F2B2453E8EABEF19ECF474325EB2153E81
:100E20002BACDB185FF4B232CDB1E33DD0ACC417CC
:100E3000D2F3EF3240B1AF3D7BADAB1645F32C336F
:100E4000B5B0783D2EAE9015B8F268332DB03F3D69
:100E5000E8AE73142CF2A333A9AF033DA9AF54132A
:100E60009FF1DF3328AFC53C71B0341213F1193450
:100E7000A9AE853C40B1121187F053342EAE423CEE
:100E800015B2EE0FFBEF8D34B6ADFD3BF2B2CA0EDC
:100E90006FEFC63441ADB63BD5B3A40DE3EEFF34DE
:100EA000D0AC6D3BBEB47C0C58EE373561AC213B09
:100EB000AFB5540BCCED6E35F6ABD33AA5B62B0AD5
:100EC00041EDA5358EAB823AA2B70109B6ECDC350F
:100ED00029AB303AA6B8D6072BEC1236C8AADB39B4
:100EE000AFB9AA06A1EB48366AAA8439BFBA7E0513
:100EF00016EB7D360FAA2B39D4BB51048CEAB136E0
:100F0000B7A9CF38F0BC240302EAE53663A97138EB
:100F100011BEF70178E9183712A9123838BFC90095
:100F2000EFE84B37C5A8B03765C09BFF65E87E3753
:100F30007BA84B3797C16EFEDCE7B03734A8E536A7
:100F4000CFC240FD53E7E137F1A77D360CC413FC57
:100F5000CBE61238B1A712364EC5E6FA42E6423861
:100F600074A7A53595C6BAF9BAE571383BA73735E8
:100F7000E1C78EF832E5A13805A7C63432C963F758
:100F8000AAE4CF38D3A6533488CA39F623E4FD380F
:100F9000A4A6DF33E2CB0FF59CE32B3978A66833A8
:100FA00041CDE6F315E3583950A6EF32A5CEBFF296
:100FB0008EE284392CA674320CD098F108E2B03954
:100FC0000BA6F83178D173F082E1DB39EDA57931E8
:100FD000E8D24FEFFCE0063AD3A5F9305CD42DEE11
:100FE00077E0303ABCA57630D3D50CEDF2DF593A34
:100FF000A9A5F22F4ED7EDEB6DDF823A99A56C2FA4
:10100000CDD8CFEAE9DEAB3A8DA5E42E4FDAB4E9CC
:1010100064DED33A85A55A2ED5DB9AE8E1DDFA3AAB
:101020007FA5CF2D5DDD82E75DDD213B7EA5412DD6
:10103000E9DE6DE6DADC473B7FA5B22C77E059E5C7
:1010400057DC6D3B85A5212C08E248E4D5DB923BBB
:101050008DA58F2B9CE33AE352DBB63B99A5FB2A87
:1010600032E52DE2D1DADA3BA9A5652ACBE624E107
:101070004FDAFD3BBCA5CE2965E81DE0CED9203C6A
:10108000D3A5352902EA19DF4DD9423CEDA59A28AE
:10109000A1EB18DECDD8643C0BA6FE2741ED19DD8F
:1010A0004DD8853C2CA66027E3EE1EDCCDD7A53CB1
:1010B00050A6C12687F026DB4ED7C53C78A6202651
:1010C0002CF231DACFD6E43CA4A67E25D2F33FD968
:1010D00051D6033DD3A6DA2479F551D8D3D5213D95
:1010E00005A7352421F766D756D53F3D3BA78E236C
:1010F000CAF87FD6D8D45B3D74A7E72273FA9BD594
:101100005CD4783DB1A73D221DFCBBD4DFD3933D19
:10111000F1A79321C7FDDFD363D3AF3D34A8E72008
:1011200072FF06D3E8D2C93D7BA83A201C0131D218
:101130006DD2E33DC5A88C1FC70261D1F2D1FC3D41
:1011400012A9DC1E710494D078D1153E63A92B1E20
:101150001B06CCCFFED02D3EB7A9791DC40707CF03
:1011600085D0453E0FAAC61C6D0947CE0CD05C3E0B
:101170006AAA121C140B8CCD94CF723EC8AA5D1BB8
:10118000BB0CD4CC1CCF883E29ABA71A610E21CC56
:10119000A5CE9D3E8EABEF19051073CB2ECEB13E82
:1011A000F6AB3719A811C9CAB7CDC53E61AC7E18D8
:1011B0004A1324CA41CDD83ED0ACC417EA1483C91F
:1011C000CCCCEB3E41AD09178816E8C857CCFD3EA4
:1011D000B6AD4C16241850C8E2CB0F3F2EAE90157A
:1011E000BE19BEC76ECB203FA9AED214561B31C765
:1011F000FBCA303F28AF1314EB1CA8C688CA403F77
:10120000A9AF54137E1E25C615CA4F3F2DB09412A8
:101210000E20A7C5A3C95D3FB5B0D3119C212DC534
:1012200032C96B3F40B112112623B9C4C1C8783FFF
:10123000CDB15010AE244AC451C8853F5EB28D0F67
:101240003226E0C3E1C7913FF2B2CA0EB3277BC397
:1012500072C79C3F88B3060E31291CC303C7A73F42
:1012600022B4410DAA2AC1C295C6B13FBEB47C0CBE
:10127000212C6DC227C6BB3F5EB5B70B932D1DC297
:10128000BAC5C43F00B6F10A022FD3C14EC5CC3F48
:10129000A5B62B0A6C308EC1E2C4D43F4DB76409A9
:1012A000D2314FC176C4DB3FF8B79D08343315C146
:1012B0000CC4E13FA6B8D6079234E0C0A1C3E73F13
:1012C00056B90E07EB35B1C038C3EC3F09BA460634
:1012D0003F3788C0CFC2F13FBFBA7E058E3864C0A9
:1012E00066C2F53F77BBB504D93945C0FEC1F83FAA
:1012F00032BCED031E3B2CC097C1FB3FF0BC240366
:101300005F3C19C030C1FD3FB0BD5B029A3D0BC0D0
:10131000CAC0FF3F73BE9201D03E03C065C000400B
:1013200038BFC9000648804706480047FEE7FEE789
:10133000FEE7FEE7FEE7FEE7FEE7FEE7FEE7FEE785
:10134000AD2F00083101000880EA010210B502F05B
:101350000042400026D04B0023D04FEA106101EB41
:101360001361C0F35600C3F3560340F4000043F486
:101370000003A0FB0330A1F17F014FEA00401C04F1
:1013800001D000F1010050EA134001D44000491E91
:10139000C3B20C0604EBD010401C4008802B02D0D6
:1013A00003E0002010BD20F00100002900DA002039
:1013B000104310BD2DE9FE4F81EA030421F00045E2
:1013C00004F0004423F000414FF0000A009450EA7A
:1013D000050302D052EA010304D10020014603B004
:1013E000BDE8F08FC1F30A53C5F30A541C44A0FBB7
:1013F00002B3C5F3130545F4801CC1F3130141F496
:1014000080180CFB023300FB083EA4F2F334810A7F
:10141000930A41EA8C5143EA88530194A1FB0347A4
:101420004FEA9C2505FB03734FEA982601FB06371C
:101430003D05260545EA1435BBEB06016EEB0503B9
:10144000850E920E45EA8C1542EA8812A5FB02062B
:10145000261E67EB00070C0D44EA0334A41947EB82
:101460001350C1F313064FF0000319464FEA03333C
:1014700043EA165343EA0403019CE5FB0201A4F18D
:101480000C040294009C4FEA0632CDE900A400F05F
:1014900010F9A4E7C10F80EAE0700844CA07962358
:1014A000002100F09DB896230022114600F098B864
:1014B0000EB540F2334102910021CDE900110A46F8
:1014C0000B4600F0F6F803B000BD20F00040C10D5F
:1014D000C0F3160040F400007F2901DA00207047B5
:1014E000962903DCC1F19601C840704796398840BF
:1014F0007047C1F30A52C1F3130140F2FF3341F4C4
:1015000080119A4201DA0020704740F233439A4238
:10151000A2F2334202DC524200F049B890407047D8
:1015200030B50B46014600202022012409E021FAB3
:1015300002F59D4205D303FA02F5491B04FA02F5B0
:101540002844151EA2F10102F1DC30BD2DE9F05F47
:101550000546002092469B46884606468146402422
:101560001BE0284641464746224600F020F85246F6
:101570005B46801A994110D310461946224600F066
:1015800079FA2D1A67EB01084F4622460120002107
:1015900000F070FA17EB00094E41201EA4F101047F
:1015A000DFDC484631462A464346BDE8F09F202A04
:1015B00004DB203A21FA02F00021704721FA02F3FD
:1015C000D040C2F1200291400843194670470029DB
:1015D000A8BF7047401C490008BF20F001007047B9
:1015E00010B4B0FA80FC00FA0CF050EA010404BF19
:1015F00010BC704749B1CCF1200421FA04F411FA6F
:101600000CF118BF012121430843A3EB0C01CB1DB2
:101610000106000A002BBEBF002010BC704700EB83
:10162000C35010440029A4BF10BC7047401C49009F
:1016300008BF20F0010010BC7047F0B4002802DCA5
:10164000F0BC00207047C0F3C751C0F3160040F44F
:101650000000CA0701D14000491E3F2202EB61058C
:10166000002211464FF4000626FA01F31344D41861
:10167000844201D8001B1A464000491C1729F3DD9B
:101680005100814202D24FF0FF3100E0002102EB15
:10169000C550F0BCFFF79BBF10B5002B08DA401C0B
:1016A00041F1000192185B411A4301D120F0010081
:1016B00010BD2DE9F04D92469B4611B1B1FA81F271
:1016C00002E0B0FA80F22032904600F0D3F90646EC
:1016D0000F4640EA0A0041EA0B0152465B460843C6
:1016E00003D130463946BDE8F08D194652EA010073
:1016F00015D0C8F140025046FFF759FF04460D4689
:1017000050465946424600F0B5F9084301D0012041
:1017100000E00020044345EAE07526432F430A9881
:101720004FEAD625A0EB08000A304FEA46534FF0A7
:10173000000245EA47554FEAD72402D5002001466A
:10174000D1E7010550196141DDE9084500196941FA
:10175000BDE8F04DA0E72DE9FE4F074681EA030002
:10176000C00F0E46019021F0004123F00044B81A4A
:10177000A14105D23846314617461E460B46024661
:1017800023F00040104304D13846314603B0BDE891
:10179000F08F350DC5F30A00C3F30A510290401AC9
:1017A0000090402868DAC3F3130040F4801B0198CE
:1017B000924620B10023D2EB030A63EB0B0B009897
:1017C0005946C0F14002504600F054F980460C469C
:1017D00050465946009A00F05CF9C0197141EF1764
:1017E00085EA11533B4340D0019A52B3009A012A33
:1017F00011DC0022801A4FF0004361EB055103EA2F
:1018000005538018CDE9002341F580114246234657
:10181000FFF74FFFBAE72E050025401B61EB0601DD
:10182000401941F58012001852412818A6F50013FE
:1018300043EB020140EAD470294318EB08086441E5
:1018400013E064084FEA38084FF0000244EAC0741D
:101850004FEA0553801A61EB0301801841F58011AE
:1018600049084FEA3000801859414246234603B0E8
:10187000BDE8F04FFFF710BF0198012240000023A0
:10188000D0EB020263EBE07301984FEAE074381A80
:1018900066EB0401EBE783F000435CE781F0004175
:1018A00059E72DE9F04D81EA030404F0004B21F0E3
:1018B000004714464FF0000A23F0004150EA0702A7
:1018C00020D054EA01021DD0C1F30A550246C1F3EB
:1018D0001300C7F30A56C7F3130340F4801143F40F
:1018E0008013A6EB0508101BD64608F2FD3873EBF3
:1018F000010002D308F1010801E092185B41B8F140
:10190000000F03DA00200146BDE8F08D00204FF4FF
:101910008015064607460EE0B2EB040C73EB010C93
:1019200004D3121B064363EB01032F436D084FEAF8
:10193000300092185B4150EA050CEDD152EA0300E9
:1019400012D082EA040083EA0105284303D1002271
:101950004FF0004308E0101B8B4102D2012200230C
:1019600002E06FF0010253101AEB060047EB08513A
:1019700010EB0A0041EB0B01BDE8F04DFFF78CBE08
:1019800070B521F0004303430CD0C1F30A54002684
:10199000D4EB060566EB0603D417AD1AA34102DBB0
:1019A0000020014670BD001C41EB025170BD0EB518
:1019B000C10F80EAE0700844CA07002140F23343B7
:1019C0008DE80E000A460B46FFF773FE03B000BD1C
:1019D000C1F30A52C1F3130140F2FF3341F4801105
:1019E0009A4202DA00200146704740F233439A429D
:1019F000A2F2334202DC5242FFF7D9BD00F03AB8FE
:101A000030B5002904DB4FF00044404264EB010193
:101A1000002B04DB4FF00044524264EB03038B4283
:101A200008BF824230BD000030B5002904DB4FF012
:101A30000044404264EB0101002B04DB4FF0004402
:101A4000524264EB0303994208BF904230BD00004C
:101A5000064C074D06E0E06840F0010394E80700FB
:101A600098471034AC42F6D3FEF766FBF05F0008EF
:101A700010600008202A04DB203A00FA02F100205E
:101A800070479140C2F1200320FA03F319439040BC
:101A90007047202A06DBCB17203A41FA02F043EACE
:101AA000E071704741FA02F3D040C2F12002914048
:101AB00008431946704770B501EB020410F8015B4A
:101AC00015F0070301D110F8013B2A1106D110F8D7
:101AD000012B03E010F8016B01F8016B5B1EF9D1DB
:101AE0002B0705D40023521E0FD401F8013BFAE75F
:101AF00010F8013B02F10202A1EB030303E013F82B
:101B0000015B01F8015B521EF9D5A142D6D300203A
:101B100070BD7047704721B1826842F00102826057
:101B200003E0826822F001028260704721B182687E
:101B300042F48072826003E0826822F480728260E4
:101B40007047000000B599B04FF4404001F0B8F87C
:101B50000121084601F0C0F8012140F6042001F0FF
:101B6000DBF80220ADF8600000208DF8630018A9B2
:101B7000444800F0CDFC05A801F00AFB5A20ADF85E
:101B800018006420ADF814000020ADF81A00ADF87C
:101B9000160005A93C4801F0A9FA6020ADF8040040
:101BA0000120ADF806001020ADF80A000220ADF8C3
:101BB0000C0001A9344801F04DFA0121324801F02E
:101BC0003AFA324800F060F93148089031480990FB
:101BD00000200A904FF47A500B9000200C90802047
:101BE0000D9040000E9080000F9020201090000279
:101BF00011900020129008A9244800F001FA012158
:101C0000224800F035F9002013908DF850008DF82F
:101C100051001590169001208DF85C0013A91C4806
:101C20004C3800F04DF805230122114618484C3875
:101C300000F06EF8012116484C38FFF777FF0121BC
:101C400013484C38FFF767FF11484C3800F0BCF8D8
:101C500000BF0F484C3800F029F80028F9D10C4893
:101C60004C3800F0C1F800BF09484C3800F014F8B7
:101C70000028F9D1012106484C3800F0AAF819B023
:101C800000BD000000080140002C01400800024097
:101C90004C240140DC010020014600208A6812F03B
:101CA000040F01D0012000E0002070470146002011
:101CB0008A6812F0080F01D0012000E00020704770
:101CC00030B502460020002350680F4C20400D79AB
:101CD0000C6844EA05242043506090680B4C204077
:101CE000D1E902542C434D7944EA450420439060E5
:101CF000D06A20F470000C7C641EE4B2234340EAF6
:101D00000350D06230BD0000FFFEF0FFFDF7F1FF91
:101D1000F0B504460D4600200021092D11DDE068D4
:101D2000A5F10A0606EB4607072606FA07F18843DF
:101D3000A5F10A0606EB460603FA06F10843E06041
:101D40000CE0206905EB4507072606FA07F18843F2
:101D500005EB450603FA06F108432061072A0FDA6E
:101D6000606B561E06EB86071F2606FA07F18843AE
:101D7000561E06EB860605FA06F10843606322E06C
:101D80000D2A0FDA206BD61F06EB86071F2606FAF0
:101D900007F18843D61F06EB860605FA06F10843CD
:101DA000206310E0E06AA2F10D0606EB86071F260D
:101DB00006FA07F18843A2F10D0606EB860605FA3E
:101DC00006F10843E062F0BD816841F008018160DE
:101DD000704721B1826842F4A002826003E0826809
:101DE00022F4A00282607047816841F004018160A2
:101DF000704700B585B0684600F0ACFF019805B0AB
:101E000000BD000010B500F097FF00F039FB01F0B5
:101E1000CBF908A001F024FA03F0C8F900F00CFA9D
:101E200000F012FD00F011F9FFF78CFE03F022FA2A
:101E300010BD000073746172740000007047704739
:101E400070477047704770477047704770477047DA
:101E50007047000010F0805F02D00349086001E085
:101E6000024948607047000004040240000002403C
:101E700021B1026842F00102026003E0026822F030
:101E80000102026070470000016821F00101016059
:101E90000021016041608160C1604C49884208D1E5
:101EA0004A490839496841F00F01484A083A5160E7
:101EB0008AE046491431884208D1444908394968C2
:101EC00041F0F001414A083A51607DE03F49283134
:101ED000884208D13D490839496841F470613B4A5C
:101EE000083A516070E039493C31884208D137499D
:101EF0000839496841F47041344A083A516063E056
:101F000032495031884208D130490839496841F492
:101F100070212E4A083A516056E02C4964318842BB
:101F200008D12A490839496841F47001274A083A1A
:101F3000516049E025497831884208D12349083960
:101F4000496841F07061214A083A51603CE02049FB
:101F5000884206D1011F096841F00F01021F11607C
:101F600032E01B491431884208D11949091F096818
:101F700041F0F001164A121F116025E01449283182
:101F8000884208D11249091F096841F47061104A5A
:101F9000121F116018E00E493C31884208D10C49EB
:101FA000091F096841F47041094A121F11600BE0D2
:101FB00007495031884207D10549091F096841F492
:101FC0007021034A121F1160704700000800024090
:101FD0000804024001460020002211F0805F02D078
:101FE000054B1A6801E0054B1A680A4201D001202E
:101FF00000E00020704700000004024000000240A2
:1020000010B50022026847F6F0739A430C6A8B6899
:1020100023430C6923434C6923438C692343CC69D4
:1020200023434C6A23438C6A23431A430260CB68E0
:1020300043600B6883604B68C36010BD7047704796
:10204000704770477047704770471CB50420009078
:1020500000208DF804000C208DF8050001208DF87B
:102060000600684600F006F80221042000F030FA6D
:102070001CBD0000002123498279002A3AD00A467B
:10208000126803689A430B461A600A1D12680368B7
:102090009A430B1D1A60027911440A6803681A43B7
:1020A0000A60184A0832126803689A43154B0833CD
:1020B0001A601A1D126803689A43124B0C331A6097
:1020C0004279102A0ED11A1F126803681A430D4B69
:1020D00008331A601A1D126803681A43094B0C333F
:1020E0001A600DE00749427911440A6803681A43EF
:1020F0000A6005E0027911440A6803689A430A609D
:1021000070470000000401400149C86070470000AA
:102110000020024030B5054604244FF4302000F082
:1021200077F80446042C19D10D48006940F00200EC
:102130000B49086108464561006940F040000861AC
:102140004FF4302000F064F80446052C06D0044813
:10215000006941F6FD71084001490861204630BD23
:102160000020024004200C49C96801F00101012946
:1021700001D101200EE00849C96811F0040F01D017
:10218000022007E00449C96811F0100F01D00320B4
:1021900000E004207047000000200240704700006B
:1021A0000348006940F08000014908617047000061
:1021B0000020024070B505460E460424E00200F0FF
:1021C00027F80446042C13D10A48006940F00100A6
:1021D000084908612E80E00200F01AF80446052C38
:1021E00006D00448006941F6FE71084001490861C3
:1021F000204670BD00200240024803494860034861
:10220000486070472301674500200240AB89EFCD4D
:1022100000B502460423FFF7A5FF034603E0FFF7DE
:10222000A1FF0346521E012B01D1002AF7D102B9AA
:102230000523184600BD704700B597B00120ADF8E2
:10224000580010208DF85B0003208DF85A0016A965
:10225000274800F05DF90121254800F0EBF94CF228
:102260003370ADF8580018208DF85B0016A921488E
:1022700000F04EF94FF68070ADF8580016A91E48D0
:1022800000F046F941F20100ADF8580016A91B48CC
:1022900000F03EF9002001900290022003900020FF
:1022A0000490059006900790062008900020099061
:1022B0000A9010200B9000200C900D900E900F9023
:1022C0004FF480501090002011901290139001A8AC
:1022D000149015900121080200F0FEFC08A800F0FF
:1022E00029F80121062000F00BF817B000BD00000E
:1022F000000C014000140140001801400020014082
:1023000051B14FF0204252F8202042F001024FF02C
:10231000204343F8202009E04FF0204252F82020CB
:10232000034B1A404FF0204343F820207047000031
:10233000FEFF0F00D0E901121143C2681143026988
:1023400011434269114382691143C2691143026A10
:102350001143426A1143826A1143C26A11434FF02A
:102360002043026843F822108168082908D11A46E0
:10237000016852F8211041F04001026843F8221030
:10238000016B0968026B526841EA0211026B9268A4
:1023900041EA0221026BD26841EA0241026B1269F2
:1023A00041EA0251026B526941EA0261026B926991
:1023B00011430268521C4FF0204343F82210816AF7
:1023C000B1F5804F1AD1416B0968426B526841EAFE
:1023D0000211426B926841EA0221426B126941EAA2
:1023E0000251426B526941EA0261426B92691143A8
:1023F000026803EB8202C2F8041108E06FF070413A
:102400004FF02043026803EB8202C2F804117047C8
:102410002DE9F04104460E46174600F021F803214D
:102420000E4800F014FDC4F307410C4800F00FFD06
:10243000C4F30721094800F00AFDE1B2074800F0A3
:1024400006FD002505E00C21044800F000FD705554
:102450006D1CBD42F7D3BDE8F0810000003800409C
:1024600010B50521054800F0F2FC00BFAA21034881
:1024700000F0EDFC10F0010FF8D110BD0038004065
:1024800008B5C020ADF8000010208DF8030003202F
:102490008DF8020069460B4800F03AF84FF40150FD
:1024A000ADF800006946084800F032F83C20ADF86D
:1024B000000048208DF803006946044800F028F821
:1024C00008BD000000100140001401400018014048
:1024D00030B500228B071C0F0F2303FA04F20B4BBD
:1024E0008C1053F824309343084C8D1044F8253059
:1024F00023468C1053F824308C07240F00FA04F480
:102500002343024C8D1044F8253030BD08000140B3
:102510002DE9F0410246002500260020002300247A
:10252000002791F803C00CF00F0591F803C01CF0D0
:10253000100F03D091F802C04CEA0505B1F800C0B5
:102540001CF0FF0F31D0146800202BE04FF0010C7D
:102550000CFA00F3B1F800C00CEA03069E4220D149
:1025600083004FF00F0C0CFA03F7BC4305FA03FC91
:102570004CEA040491F803C0BCF1280F06D14FF0D7
:10258000010C0CFA00FCC2F814C00AE091F803C078
:10259000BCF1480F05D14FF0010C0CFA00FCC2F859
:1025A00010C0401C0828D1D31460B1F800C0BCF1A1
:1025B000FF0F34DD546800202EE000F1080C4FF0CE
:1025C000010808FA0CF3B1F800C00CEA03069E42B9
:1025D00021D183004FF00F0C0CFA03F7BC4305FA2E
:1025E00003FC4CEA040491F803C0BCF1280F05D1A8
:1025F00000F1080C08FA0CF8C2F8148091F803C036
:10260000BCF1480F07D100F1080C4FF0010808FA9F
:102610000CF8C2F81080401C0828CED35460BDE8E6
:10262000F0810246002093680B4201D0012000E0B7
:1026300000207047416170470161704738B504461A
:1026400020890090E388A2886188208800F0B0F893
:1026500038BD2DE9F04704468846002500260027AE
:1026600053E018F805007E2828DDA18806F118003F
:1026700081420ADA002607F1190087B2E18807F1E2
:102680001800814201DABDE8F08707F1020CB4F8C6
:102690000290CC441FFA8CF106F1010CB4F80090C2
:1026A000CC441FFA8CF0638908EB050200F08CFA29
:1026B00006F1190086B2A81C85B226E0A18806F1B1
:1026C0000C00814209DA002607F1190087B2E1887F
:1026D00007F11800814200DAD5E707F1020CB4F8DF
:1026E0000290CC441FFA8CF106F1010CB4F8009072
:1026F000CC441FFA8CF0638918F8052000F0A3FA87
:1027000006F10D0086B2681C85B218F80500002895
:10271000A7D100BFB7E7000038B5044604480089D8
:102720000090E388A2886188208800F041F838BDD5
:102730003E0000200FB410B58EB0044612A80090E1
:10274000322101A8009B119A00F054FF01A92046F4
:10275000FFF77FFF002000900EB010BC5DF814FB67
:102760007047704770477047F0B504460D461646EF
:102770000C488088A04203DD0A48C088A84200DCDB
:10278000F0BD09480078012804D12F462546C7F13D
:10279000F00084B22946204600F0D6F903480680AE
:1027A00000BFEDE73E000020C20100200008006CE1
:1027B0002DE9F04705460E4614461F46DDF820A0D9
:1027C00028191E498988884203DD1C488088401BDF
:1027D00084B2F0191949C988884203DD1748C088B6
:1027E000801B87B216480078012808D1A0463C46D5
:1027F0004746B0462E46C8F1F000001B85B23B4666
:1028000022463146284600F0C5F93146284600F0F8
:102810009BF904FB07F84FF0000904E00948A0F811
:1028200000A009F10109C145F8D34FF4A073F022CB
:102830000021084600F0AEF9BDE8F0873E00002018
:10284000C20100200008006C08B5E320BD490880E3
:1028500043F20800891C0880E720891E08801220A6
:10286000891C0880EF20891E088041F23120891CD4
:1028700008800020891E08800120891C0880891E8C
:1028800008800002891C08800220891E08804FF4FD
:10289000E060891C08800320891E088041F2300016
:1028A000891C08800420891E08800020891C08805B
:1028B0000820891E088040F20220891C0880092017
:1028C000891E08800020891C08800A20891E088033
:1028D0000020891C08800C20891E08800020891C8B
:1028E00008800D20891E08800020891C08800F2088
:1028F000891E08800020891C08801020891E0880FD
:102900000020891C08801120891E08800720891C4E
:1029100008801220891E08800020891C088013204E
:10292000891E08800020891C0880142001F042FBC9
:1029300010208449088041F29060891C0880112091
:10294000891E088040F22720891C0880322001F06F
:102950004CFB12207B4908801C20891C08803220F7
:1029600001F043FB1320774908804FF4C050891CC5
:1029700008802920891E08801420891C08802B20AB
:10298000891E08800D20891C0880322001F02DFB53
:1029900020206C4908800020891C08802120891E85
:1029A00008800020891C08803020891E08800720AC
:1029B000891C08803120891E088040F20230891C61
:1029C00008803220891E088040F20510891C08808A
:1029D0003520891E088040F20620891C0880362098
:1029E000891E088040F60800891C08803720891E4F
:1029F000088040F20620891C08803820891E088043
:102A000040F20450891C08803920891E0880072064
:102A1000891C08803C20891E088040F20510891C12
:102A200008803D20891E088040F60800891C088027
:102A30005020891E08800020891C08805120891E92
:102A40000880EF20891C08805220891E0880002001
:102A5000891C08805320891E088040F23F10891C81
:102A600008806020891E08804FF42740891C088058
:102A70006120891E08800120891C08806A20891E27
:102A800008800020891C08808020891E0880002082
:102A9000891C08808120891E08800020891C0880EC
:102AA0008220891E08800020891C08808320891EBE
:102AB00008800020891C08808420891E088000204E
:102AC000891C08808520891E08800020891C0880B8
:102AD0009020891E08801020891C08809220891E61
:102AE00008800020891C08809320891E088003200C
:102AF000891C08809520891E08804FF48870891CE5
:102B000008809720891E08800020891C0880982052
:102B1000891E08800020891C08800720891E0880E3
:102B200040F23310891C0880012000F01BF84FF49C
:102B3000FC60F0234FF4A072002100900846FFF7DC
:102B400037FE08BDFE07006C2022054B1A809A1C38
:102B5000108021221A809A1C118022221A8070472C
:102B6000FE07006C094908700978012906D14FF465
:102B7000A071074A9180F021D18005E0F021044A3C
:102B800091804FF4A071D18070470000C2010020F5
:102B90003E00002030B550240A4D2C80AC1C208013
:102BA00051242C808418641EAD1C2C805224AD1E30
:102BB0002C80AC1C218053242C80CC18641EAD1CAE
:102BC0002C8030BDFE07006C2DE9F04F92B080469E
:102BD000894617469A467878A1383978A139C1EBE9
:102BE000011202EB411100EB410000EBC0004FEA83
:102BF000C00B002522E000241CE0002616E005EBB7
:102C0000450069460844005DC6F107020121914074
:102C1000084209D009EB050291B208EBC402324424
:102C200090B25246FFF7A0FD701CC6B2082EE6DB3C
:102C3000601CC4B2032CE0DB681CC5B2182DDADBC3
:102C400012B0BDE8F08F2DE9F04F89B007468846F5
:102C500091469A46A9F1200000EBC000800000F5E3
:102C6000102B242269465846FFF7D2FB002521E0AD
:102C700000241BE0002615E00DEB040005EB4501E8
:102C8000405CC6F1070201219140084208D008EBE0
:102C9000C402324491B27A1990B25246FFF764FDF1
:102CA000701CC6B2082EE7DB601CC4B2032CE1DB4B
:102CB000681CC5B20C2DDBDB09B0BDE8F08F704796
:102CC00001460020034A506820F440400843506009
:102CD000704700000010024029B1064A52690243C1
:102CE000044B5A6104E0034A52698243014B5A6122
:102CF000704700000010024029B1064AD269024321
:102D0000044BDA6104E0034AD2698243014BDA6181
:102D1000704700000010024029B1064A9269024340
:102D2000044B9A6104E0034A92698243014B9A6121
:102D3000704700000010024010B500F037F9012183
:102D400045F27D30FFF7E8FF01210846FFF7C4FF99
:102D500010BD000030B500210022002400232D4DBD
:102D60006D6805F00C0121B1042905D0082923D193
:102D700005E0294D056022E0274D05601FE0254D47
:102D80006D6805F47012234D6D6805F480340225DA
:102D900005EB92421CB9214D554305600BE01D4DDA
:102DA0006D6815F4003F03D01C4D5543056002E0EB
:102DB000194D5543056002E0174D056000BF00BF87
:102DC000144D6D6805F0F0010909154D6B5C05683F
:102DD000DD4045600F4D6D6805F4E061090A104D56
:102DE0006B5C4568DD4085600A4D6D6805F4605197
:102DF000C90A0B4D6B5C4568DD40C560054D6D68CB
:102E000005F44041890B074D6B5CC568B5FBF3F5D4
:102E1000056130BD0010024000127A0000093D003B
:102E2000C3010020D30100207047704770477047EE
:102E300070477047704721B1028842F0400202801B
:102E400004E002884FF6BF731A400280704770B5E5
:102E500004460D4600BF0221204600F012F800286B
:102E6000F9D02946204600F018F800BF012120467D
:102E700000F007F80028F9D0204600F00BF8C0B2A7
:102E800070BD0246002013890B4201D0012000E0F2
:102E9000002070470146888970478181704710B5CE
:102EA0000022028802F441520B884C8823438C880C
:102EB0002343CC8823430C8923434C8923438C89A7
:102EC0002343CC8923431A430280838B4FF2FF7440
:102ED000234083830B8A038210BD10B500F002F8F3
:102EE00010BD0000002100202E4A126842F48032FA
:102EF0002C4B1A6000BF2B4A126802F40030491CA8
:102F000010B9B1F5A06FF6D1264A126812F4003F4D
:102F100001D0012000E00020012842D1224A12689D
:102F200042F01002204B1A601A46126822F0030287
:102F30001A601A46126842F002021A60194A526870
:102F4000184B5A601A4652685A601A46526842F440
:102F500080625A601A46526822F47C125A601A46FD
:102F6000526842F4E8125A601A46126842F08072BF
:102F70001A6000BF0B4A126812F0007FFAD0094AAB
:102F8000526822F00302074B5A601A46526842F018
:102F900002025A6000BF034A526802F00C02082A7B
:102FA000F9D17047001002400020024010B51148CE
:102FB000006840F001000F490860084640680E496B
:102FC00008400C494860084600680C490840094917
:102FD00008600846006820F48020086008464068C1
:102FE00020F4FE0048604FF41F008860FFF775FF73
:102FF00010BD0000001002400000FFF8FFFFF6FEC9
:103000007047704770477047704770477047704708
:10301000704770477047704770477047704721B1DD
:10302000028842F00102028004E002884FF6FE733B
:103030001A400280704731B1B0F8442042F4004297
:10304000A0F8442005E0B0F84420C2F30E02A0F836
:103050004420704770B5002400220023058C4FF6F1
:10306000FE7635400584028C8388048B4FF68F757D
:103070002C40B51E2C400D882C43751E2A400D890E
:103080002A434D882A43144DA8420BD0134DA84221
:1030900008D0134DA84205D0124DA84202D0124DBF
:1030A000A84213D14FF6F7752A404D892A434FF6AF
:1030B000FB752A408D882A434FF6FF652B404FF65B
:1030C000FF552B408D892B43CD892B43838004836F
:1030D000CD888586028470BD002C014000340140FB
:1030E00000400140004401400048014000220288A5
:1030F0001D4B98420ED01D4B98420BD0B0F1804F23
:1031000008D01B4B984205D01A4B984202D01A4B5C
:10311000984204D14FF68F731A404B881A43174BCD
:10312000984207D0164B984204D04FF6FF431A40FE
:10313000CB881A4302808B8883850B8803850A4BD2
:1031400098420BD0094B984208D00E4B984205D0BC
:103150000D4B984202D00D4B984201D10B7A038659
:103160000123838270470000002C0140003401409D
:103170000004004000080040000C00400010004027
:10318000001400400040014000440140004801405C
:103190004FF6FF71818000210180C1804180017262
:1031A000704770477047704700B585B04FF40070A6
:1031B000ADF8100018208DF8130003208DF81200D0
:1031C00004A91948FFF7A4F94FF48060ADF8100086
:1031D00004208DF8130004A91348FFF799F94FF460
:1031E000612000900020ADF80400ADF80600ADF8B5
:1031F0000800ADF80C000C20ADF80A0069460B4839
:1032000000F08CF8012240F22551084800F060F8E7
:1032100001228021054800F04FF80121034800F009
:103220003FF805B000BD0000000801400038014033
:103230000FB408B503A800904FF480710648009BB6
:10324000029A00F0D7F90449044800F0DFF80020A2
:10325000009001B05DF814FB2CAA0020003801405A
:103260000FB408B503A800904FF480710848009B84
:10327000029A00F0BFF9002000900549054800F0CF
:10328000C5F805A1034800F0C1F801B05DF814FBD2
:103290002CAA0020003801400D0A0000704770473A
:1032A00021B1828942F40052828104E082894DF684
:1032B000FF731A408281704710B51AB1838A0B439D
:1032C000838204E0838ACC43A4B22340838210BD6E
:1032D000F0B503460024002600250020A1F5106764
:1032E0006A3F00D100BF1846C1F3421401F01F0627
:1032F000012707FA06F5012C01D10C3004E0022C5D
:1033000001D1103000E014301AB107682F43076074
:1033100002E00768AF430760F0BD00002DE9F04709
:1033200086B005460E460024A24600BFA1460027EF
:10333000B08900B100BF2F462C8A4CF6FF700440C4
:10334000F08804432C82AC894EF6F3100440B08818
:1033500031890843718908430443AC81AC8A4FF634
:10336000FF400440B0890443AC8201A8FFF7F2FC9F
:103370001F48874202D1DDF810A001E0DDF80CA063
:10338000A88910F4004F08D00AEBCA0000EB0A101D
:1033900031684900B0FBF1F807E00AEBCA0000EB26
:1033A0000A1031688900B0FBF1F86420B8FBF0F036
:1033B00004012009642101FB1089A88910F4004F41
:1033C00008D0322000EBC900B0FBF1F000F007009C
:1033D000044308E0322000EB09106421B0FBF1F057
:1033E00000F00F0004432C8106B0BDE8F087000018
:1033F0000038014000BF044A128812F0800FFAD052
:10340000C1F30802828070470038014070B506465B
:103410000C46002505E0615D3046FFF7EBFF681CB8
:1034200085B2605D0028F6D170BD70472DE9FF4F71
:1034300083B0044615464FF0000C0022904691469A
:1034400000269346CDF800B0B3F804E0D3F800B0FE
:10345000F344CDF808B0B3F804E0D3F800B0ABEB18
:103460000E0BCDF804B0002008E04FF0000B45F83B
:1034700030B005EBC00ECEF804B0401C0328F4D3E6
:103480000020ADE0DDF800B00BF1010BCDF800B08D
:103490004FF0000A00211AE004EB400B3BF811B09A
:1034A000D3F800E0F34508D904EB400B3BF811B02A
:1034B000D3F800E0ABEB0E0B07E004EB400B3BF85E
:1034C00011B0D3F800E0AEEB0B0BDA44491CA02995
:1034D000E2D30027002132E004EB400B3BF811E07F
:1034E000DDF808B0DE4502D34FF0020C09E004EB32
:1034F000400B3BF811E0DDF804B0DE4501D24FF09F
:10350000010C04EB400B0BEB410BBBF802E0DDF8C8
:1035100008B0DE4504D3BCF1010F0FD17F1C0DE0D4
:1035200004EB400B0BEB410BBBF802E0DDF804B001
:10353000DE4503D2BCF1020F00D17F1C491C9F293C
:10354000CAD3D3F808B0D34503D3B3F806B0BB450C
:103550001CD212B90122904641E0012A10D108F193
:10356000010B1FFA8BF8B8F1080F38DB022204EBCD
:10357000400BABF58C6B45F836B04FF000082EE0F1
:10358000032A2CD14FF00009022228E0022A03D19D
:1035900003224FF0010922E0032A1BD109F1010B9C
:1035A0001FFA8BF9B9F10B0F19DB002204EB400B6A
:1035B000ABF5B46B05EBC60ECEF804B006F1010B0B
:1035C0000BF0FF06032E02D107B0BDE8F08F4FF0DD
:1035D000000904E0012A02D14FF000080022503017
:1035E000DDF810B0ABF1A00B83453FF64BAF00BF49
:1035F000EAE770477CB5491E14461D46CDE9000137
:10360000044B6A462946204600F01CF9009A002126
:1036100011707CBD9F3F00082DE9F0414F1E00EB6B
:10362000C7010446D1E9000115461E4637F00602DF
:103630000DD02A463346FDF7BDFE7F1E04EBC703BF
:10364000D3E90023FEF787F837F00602F1D1022F05
:1036500025D0042F13D0062F18BFBDE8F0812A46CD
:103660003346FDF7A7FED4E90A23FEF774F82A468D
:103670003346FDF79FFED4E90823FEF76CF82A468F
:103680003346FDF797FED4E90623FEF764F82A4691
:103690003346FDF78FFED4E90423FEF75CF82A4693
:1036A0003346FDF787FED4E90223FEF754F82A4695
:1036B0003346FDF77FFED4E90023BDE8F041FEF775
:1036C0004AB802E008C8121F08C1002AFAD17047A0
:1036D0007047002001E001C1121F002AFBD1704792
:1036E0000149086070470000D80100202DE9FF5F04
:1036F000DDE90210020DDDF838B001430FD10F985B
:1037000001244BA3012807D000980F9AC0E900318B
:10371000C0E90242BDE8FF9F6FEA0B01F4E7A2F2A5
:10372000FF3244F61050424315140F9801280ED072
:10373000A5EB0B00401C4FF000043E4EDFF8F89064
:10374000B0F1000AA04605DACAF1000717E0CBF194
:103750000000F0E7074612E0F80707D0224633469C
:1037600040464946FDF726FE8046894622463346B6
:1037700010461946FDF71EFE04460E467F10002F28
:10378000EAD1DDE90201BAF1000F42464B4602DA06
:10379000FDF710FE01E0FEF784F804460E46002215
:1037A000264BFEF741F903D84FF0FF30014607E002
:1037B0000022234B20463146FDF7CDFFFEF708F9E6
:1037C000102409E0002C0ADB0A220023FDF7BEFECC
:1037D000019B30321A55641E50EA0102F2D1641C7A
:1037E000019AC4F1110314440F9A012A09D001224D
:1037F000084301D15B450FDD4FF0000205F10105E3
:103800000DE0084303D1A3EB0B056D1E09E000207A
:103810004FF0110B0F9088E701DA00226D1E002A8D
:1038200083D000980F99C0E90231C0E9004571E7E3
:1038300030000000000024400000F03F0000F04392
:103840000000E03F2DE9FF4F95B006469A468946B5
:10385000002521E2252801D01799A6E00024F94986
:103860002746761C4FF0010803943278203A08FA74
:1038700002F0084202D00443761CF6E730782A288A
:1038800011D06FF02F023078A0F13001092916D83D
:10389000039944F0020401EB810102EB4101084469
:1038A000761C0390EFE759F8041B0391002903DA13
:1038B000484244F40054039044F00204761C3078EB
:1038C0002E2816D116F8010F44F004042A280DD032
:1038D0006FF02F013078A0F13002092A09D807EBE8
:1038E000870201EB42028718761CF3E759F8047B44
:1038F000761C30786C280FD006DC4C2817D068284E
:103900000DD06A2814D104E0742810D07A280FD181
:103910000DE044F400140AE044F4801401E044F49F
:1039200040147178814202D1761C04F58014761C13
:1039300096F800C0BCF1660F10D01ADCBCF1580F2D
:1039400070D00CDCBCF1000F6DD0BCF1450FF3D092
:10395000BCF1460FF0D0BCF1470F24D1A4E1BCF17B
:10396000630F40D0BCF1640F74D0BCF1650F1AD165
:103970009AE1BCF1700F6ED00CDCBCF1670FEDD09A
:10398000BCF1690F75D0BCF16E0F12D0BCF16F0F96
:1039900009D1B3E0BCF1730F2FD0BCF1750F76D015
:1039A000BCF1780F74D017996046524690476D1C51
:1039B00070E1C4F30250022809D003280DD0D9F8D1
:1039C000001004280DD00D6009F1040962E1D9F856
:1039D0000010EA17C1E90052F6E7D9F800100D808F
:1039E000F2E70D70F0E759F8041B8DF80010002085
:1039F0008DF80100EB46012003E059F804BB4FF0BD
:103A0000FF3061074FF0000102D40FE008F101011F
:103A10008846B94211DA8045F8DB1BF80810002906
:103A2000F4D10AE060E03BE108F1010188468142FF
:103A3000FADB1BF808100029F6D103985346A0EBD7
:103A4000080721463846179A00F091FA284400EBFF
:103A5000080506E00DE049E01BF8010B52461799F6
:103A60009047B8F10108F7D2534621463846179AD5
:103A70000DE10A21C4F302524FF0000B0091022A1B
:103A800007D059F8040BC117032A0AD00BE024E031
:103A900025E009F1070020F00702F2E80201914653
:103AA00005E000B2C117042A01D140B2C1170029B4
:103AB00006DA0A460021404261EB02012D2202E0B3
:103AC000220504D52B228DF80420012203E0E20711
:103AD00001D02022F7E7904654E00A2100E01021AF
:103AE0004FF0000B00910DE0102008E010204FF087
:103AF000000B44F004040827009003E008204FF076
:103B0000000B0090C4F30252022A05D059F8040BAE
:103B10000021032A08D009E009F1070020F007027C
:103B2000F2E80201914605E080B20021042A01D1A9
:103B3000C0B200214FF00008220723D5BCF1700F5E
:103B400028D0009B83F0100353EA0B0309D150EAFD
:103B5000010206D030228DF804208DF805C0022223
:103B60009046009B83F0080353EA0B030AD150EA06
:103B7000010201D1620705D530228DF804204FF0F3
:103B800001087F1EBCF1580F09D02FA20C920CAA7D
:103B9000029211E040228DF804200122E0E72FA2DA
:103BA000F4E75B46009AFDF7D1FC0C9B9B5C029A04
:103BB000A2F101020292137050EA0102F1D10298BF
:103BC00004A9A1EB000000F1200B600702D524F44A
:103BD000803400E001275F4502DDA7EB0B0000E029
:103BE000002000EB0B01009003984144A0EB010082
:103BF0000390E00306D453462146179A039800F039
:103C0000B6F90544002706E001A85246C05D1799A1
:103C100090476D1C7F1C4745F6DBE0030CD55346EF
:103C20002146179A039800F0A2F9054404E03020D9
:103C30005246179990476D1C0099481E0090002924
:103C4000F5DC1EE0092801003031323334353637D7
:103C500038396162636465660000000030313233D8
:103C60003435363738394142434445460000000078
:103C70000298029952460078491C02911799904780
:103C80006D1CBBF10001ABF1010BF1DC50E100F068
:103C90005BF9054406F10106307800287FF4DAADBF
:103CA00019B02846BDE8F08F600700D4062709F157
:103CB000070020F00701F1E80220894600F00043E8
:103CC000190001D09DA109E0210501D59CA105E0C5
:103CD000E10701D09BA101E0AFF2840120F0004395
:103CE0001391BCF1650F11D009DCBCF1450F0DD06B
:103CF000BCF1460F20D0BCF1470F3ED13EE0BCF1F5
:103D0000660F19D0BCF1670F7CD137E00021112F6D
:103D100001DB112000E0781CCDE9000104A90CA80A
:103D2000FFF7E4FCDDE90D010C9A4FF0000B07F101
:103D30000108109200914CE04FF000400097CDE94F
:103D4000018004A90CA8FFF7D1FCDDE90E20DDE914
:103D50000C314FF0000B90461093009218B907F108
:103D6000010001EB0008B7EB080003D4C0F1FF3BF2
:103D700007F10108A8EB0700019043E0012F00DAEA
:103D800001270021112F01DD112000E03846CDE987
:103D9000000104A90CA8FFF7A9FCDDE90D010C9AAC
:103DA00000914FF0000BB846109221070CD40099F7
:103DB000414500DA8846B8F1010F05DD109AA8F1F7
:103DC0000101515C302908D0B84202DA10F1040F29
:103DD00006DA0121CDE9011014E0A8F10101E9E7BB
:103DE000002803DC8344A8EB000102E0411C4145AC
:103DF00000DD8846A0EB0B0000F1010001904FF0C0
:103E000000400290200705D40198404502DB4FF0A6
:103E1000FF30019000208DF84B0002980DF14B0708
:103E2000B0F1004F26D002200C902B200D9002986C
:103E300000280CDA404202902D200D9007E00A2164
:103E40000298FDF76DFB3031029007F8011D0C99C7
:103E5000481E0C900029F2DC02980028EFD1A7F14F
:103E600001010D980870307800F0200040F0450006
:103E700007F8020D11A8A0EB070000F1070002905F
:103E80001398007800B1012000EB0801019801EBC4
:103E9000E071029801440398A0EB0100A0F1010039
:103EA0000390E00306D453462146179A039800F086
:103EB0005EF805441398007820B152461799904750
:103EC00005F10105E00322D553462146179A0398D0
:103ED00000F04DF805441AE0BBF1000F07DB009835
:103EE000584504DD1098179910F80B0001E0179958
:103EF00030205246904701986D1C401E0BF1010B7B
:103F0000019004D12E205246179990476D1CB8F1AC
:103F10000001A8F10108DFDC05E017F8010B5246AB
:103F2000179990476D1C0299481E02900029F4DCF5
:103F300053462146179A0398A9E600002D00000079
:103F40002B000000200000002DE9F0410446002570
:103F500017461E46880405D406E039462020B0479F
:103F600005F10105641EF8D52846BDE8F0812DE96C
:103F7000F0410446002590461E46C80301D530276F
:103F800000E02027880405D506E041463846B047C2
:103F900005F10105641EF8D52846BDE8F0814A68A0
:103FA000002A06D00A68531C0B6010704868401E37
:103FB00048607047014642F228324A434FF0E023FE
:103FC0005A6100229A6101221A6100BF4FF0E0227B
:103FD000106910F0010F02D010F4803FF6D00022DB
:103FE0004FF0E0231A619A617047014601EBC1026C
:103FF0004FF0E0235A6100229A6101221A6100BF4A
:104000004FF0E022106910F0010F02D010F4803F51
:10401000F6D000224FF0E0231A619A617047000049
:1040200010B5044604EB4401084A02EB8100FEF798
:1040300005FB621F02EB4202054BD11804EB440260
:10404000024B03EB8200FEF704FB10BD4A00002088
:104050000000002010B51648FEF7F0FA1548FEF7EC
:10406000EDFA15A11348FEF7F4FA12480C30FEF7EA
:10407000E5FA14A10F480C30FEF7EBFA0D481830A2
:10408000FEF7DCFA15A10B481830FEF7E2FA0948F2
:104090002430FEF7D3FA14A106482430FEF7D9FAEB
:1040A0001448FEF7CBFA14A11248FEF7D2FA10BD5D
:1040B0003E0000204A000020BBB6D3ADCAB9D3C32E
:1040C00000000000B9C2C1A2B4CAD3EFD2F4CAB68C
:1040D000B1F0B2E2CAD4CFB5CDB30000C4A3B0E50D
:1040E000D1B5C1B700000000D3EFD2F4CAB6B1F029
:1040F000000000009A010020C9E8BCC6D5DF3ACB19
:10410000CEBDA10010B50E48FEF798FA4FF61F017C
:104110000C4800F0D1FF0CA10A48FEF79AFA0524DA
:1041200004E0E0B2FFF77CFF601C84B2162CF8DDDF
:104130000848FEF783FA08A10648FEF78AFA10BD80
:104140003E0000207A000020BFAACABCD1B5C1B78A
:10415000000000008E010020B7B5BBD800000000B1
:1041600010B50F48FEF76AFA0E48FEF767FA0EA17F
:104170000C48FEF76EFA0B48E430FEF75FFA0DA12B
:104180000848E430FEF765FA0648F030FEF756FAC4
:104190000A48FEF753FA0AA10848FEF75AFA10BD7A
:1041A0003E0000207A000020D3EFD2F4CAB6B1F06E
:1041B00000000000BFAACABC000000008E01002061
:1041C000B7B5BBD8000000002DE9F34F83B082469D
:1041D000BAF802004D490880049840884C4908808C
:1041E0000846008849490988B1EB400F06DC47487A
:1041F0000088400046490988884204DA4FF0FF30C1
:1042000005B0BDE8F08F4248008840490988C1EBFD
:104210004000032190FBF1F03E4908803B480088B4
:1042200080003B490988022202FB1100032190FB18
:10423000F1F0394908800AF104060498071D39464F
:10424000304600F0FBF88146012401250120029050
:1042500000BF681C81B2204600F060F828B93146E2
:1042600007F1180000F0EAF801E04FF0FF30834654
:104270002946601C80B200F051F828B906F11801F7
:10428000384600F0DBF801E04FF0FF300190681C89
:1042900081B2601C80B200F041F830B906F118011B
:1042A00007F1180000F0CAF801E04FF0FF3000906D
:1042B000DDF800800198804501D9DDF80480D845FB
:1042C00000D9D846C1440098804506D11836601CF4
:1042D00084B21837681C85B208E0D84503D1183776
:1042E000681C85B202E01836601C84B20298401C3B
:1042F00080B2029005480088844203DA04480088AE
:104300008542A6DB0298B9FBF0F079E73A0000207D
:104310003C000020360000203800002010B5024686
:1043200019480088824205DA5000801C884210DC5F
:10433000012010BD15480088022303FB0100144B27
:104340001B88022404FB1303101D834201DB0120A0
:10435000EFE710480088824205DA4800801C90424E
:1043600010DC0120E5E70A480088022303FB020075
:10437000064B1B88022404FB1303081D834201DB48
:104380000120D6E70020D4E7360000203A000020C4
:104390003C000020380000202DE9F05F07460D4664
:1043A000B5F5806F02DD0020BDE8F09F002406E037
:1043B00037F814001E4941F82400601C84B2AC4256
:1043C000F6DB05E000201A4941F82400601C84B2A5
:1043D000B4F5806FF6DB4FF4806215491548FBF7A2
:1043E000B1FE00241FE0134850F824000FFA80F8B3
:1043F000104850F82400000C06B208FB08F006FB39
:1044000006084046FDF746F8834600F01DFF824649
:104410000949FCF799FF8146FDF757F8054941F82E
:104420002400601C84B2B4F5007FDCDB0148BBE7EC
:104430002C9A00202C8A0020000020412DE9F04712
:1044400006460F464FF00008002408E036F9140035
:1044500037F91410451A05FB0588601CC4B20C2CF2
:10446000F4DB4046FDF71FF8824600F0EDFE814682
:10447000FDF72BF880464046BDE8F0872DE9F74F61
:10448000F2B007468A46D7E90010401AA021C1EBD6
:1044900050005021B0FBF1F0401C80B2069006980D
:1044A000772807DD8AA00699FEF7C2FE0020AAF849
:1044B000020009E17498006807900AF104094FF0BE
:1044C000000BD7F80080F7E0002421E008EB44005F
:1044D00030F8021C0798081AC0EB401101EB80105D
:1044E000642190FBF1F138F814200798101A401A53
:1044F00021907A4830F81410219841434FF47A7093
:1045000091FBF0F000B222A921F81400601C84B2E3
:10451000A02CDBDBA02122A8FFF73EFF06460024EB
:1045200006E056F82400404346F82400601C84B29C
:10453000B4F5007FF5DB0020099000240DE056F86B
:104540002400674931F8141048436421B0FBF1F0AE
:10455000099908440990601C84B262484088A042CE
:10456000EDDC022522E0002009A941F82500681EA3
:104570005C4931F8104011E056F82400584931F8F0
:10458000141048436421B0FBF1F009A951F825103B
:10459000084409A941F82500601C84B25149681CEF
:1045A00031F81000A042E7DCA81C85B2182DDADB38
:1045B000012522E0002009A941F82500681E49498B
:1045C00031F8104011E056F82400474931F8141032
:1045D00048436421B0FBF1F009A951F825100844C3
:1045E00009A941F82500601C84B23E49681C31F8D5
:1045F0001000A042E7DCA81C85B2162DDADB0020F3
:1046000020903848848D0DE056F82400364931F862
:10461000141048436421B0FBF1F020990844209025
:10462000601C84B2B4F5007FEEDB002517E009A919
:1046300051F82500FCF73CFFCDE9000100F05AF8E5
:1046400000222A4BCDE90201FCF7B4FECDE90401BA
:10465000FCF74FFF09A941F82500681C85B2182D09
:10466000E5DB2348089000251CE0002029F8150010
:10467000002410E009A850F824100898005741437E
:10468000642091FBF0F039F81510084400B229F8C5
:104690001500601C84B2182CECDB089818300890C8
:1046A000681C85B20C2DE0DB09F118090BF1010043
:1046B0001FFA80FB08F1A0087868A0F5A0704045BB
:1046C000BFF402AFAAF802B075B0BDE8F08F0000E9
:1046D00066726D5F6E756D3D256420001C55000887
:1046E0008C5A00085C5600088C560008000059409F
:1046F0008C5E00082DE9F04DCB4B002492B099421E
:1047000005DA21F000429A4201D807D130B112B047
:104710004FF00102BDE8F04DFDF732B9B1F5801F51
:1047200020DA02430DD0002917DA0120FEF7D8FF66
:1047300012B00022BDE8F04D134610461146FDF7B9
:10474000B0B80220FEF7CCFF12B00022BDE8F04D59
:1047500013461046B549FDF7A4B86FF0350436226C
:10476000FDF70EF904EB2152C1F31308B049A2F290
:10477000FF33414401F4801282F07F6103EB225247
:1047800081F04051009241EA08010022A94BFDF757
:1047900082F8044608F10200A74EC0F313000D464C
:1047A0007E44032867D2D6E900232046FDF728F986
:1047B0001ED10098002802BFD6E9000112B0BDE862
:1047C000F08DFDF7F4F804460D469C4A9C4BFCF72F
:1047D000F1FD06460F469B4A9B4B20462946FCF7B7
:1047E000E9FD12B032463B46BDE8F04DFCF7B3BFE1
:1047F0004FF05532954B20462946FCF7DBFD002251
:10480000934BFDF74BF807460E4622462B461046C3
:104810001946FCF7CFFD3A463346FCF7CBFD06467A
:1048200000980F46F0B1FDF7C2F880468A46834AE9
:10483000834BFCF7BFFD32463B46FDF72FF822467F
:104840002B46FDF728F804460D467E4A7E4B40462F
:104850005146FCF7AFFD12B022462B46BDE8F04DA5
:10486000FDF719B80B4612B0324620462946BDE87E
:10487000F04DFDF710B800224FF080432046FCF7C2
:104880006AFF02460B4620462946FDF70AF806460F
:104890000F460098FDF78BF8CDE9040132463B4600
:1048A00010461946FCF786FD0C906A480A9108EB01
:1048B000000201920C9A0B461046FCF77BFD8246E3
:1048C000024665488B46C8F151080B4608F5D728C3
:1048D00003217844FEF7A0FE52465B46FCF76AFDD2
:1048E0000E905E48089152465B4604217844FEF7DC
:1048F00093FE0A9B0C9AFCF75DFD019A089B42EA25
:1049000008080E9AFCF727FF83460991B8F1000FBB
:104910004EDD4FF0FF3220462946FDF731F82246A2
:104920002B46FCF747FD804600988A4660B3DDE9D8
:104930000401424A424BFCF73DFD0B9100905A4660
:1049400040465146099BFCF706FF32463B46FCF7C2
:1049500031FD0B9B009AFCF7FEFE42465346FCF7E6
:104960009DFF22462B46FCF796FF05460C46DDE9E7
:104970000401344A344BFCF71DFD12B02A4623468D
:10498000BDE8F04DFCF787BF5A464046099BFCF74F
:10499000E2FE32463B46FCF70DFD42465346FCF72D
:1049A0007DFF12B022462B46BDE8F04DFCF776BFE6
:1049B000009840B3DDE90401204A214BFCF7FAFCE2
:1049C000824688465A4620462946099BFCF763FFE3
:1049D00032463B46FCF7EEFC52464346FCF75BFF93
:1049E00022462B46FCF757FF04460D46DDE904013D
:1049F000144A154BFCF7DEFC12B022462B46BDE8EC
:104A0000F04DFCF748BF0B465A4620462946FCF7B6
:104A100042FF32463B46FCF7CDFC12B022462B4605
:104A2000BDE8F04DFCF73ABF0000F07F0000F0BF9A
:104A3000645F09000000F03F44180000763C7935BF
:104A4000EF39EA3D0000E0FE422EE63F5555D53FE6
:104A50000000E03F86EBF9FFDA160000D8160000F0
:104A6000FDF7D0F911A0FEF7FBFBFDF7C2F91349E2
:104A7000B0FBF1F4214612A0FEF7F2FBFFF7EAFAD1
:104A800014A0FEF7EDFB0FE000F014FD144800F059
:104A900009FC10B100F086F806E011480C3000F077
:104AA00001FC08B100F082F9EEE7000053595320F1
:104AB000496E6974204F4B210000000040420F00F6
:104AC0004350552053706565643A256C64204D4809
:104AD0007A000000646973705F686F6D65000000A4
:104AE000620000202DE9F04F03464FF0F00B91FBE0
:104AF000FBFE0BFB1E1BBBF1000F01D0BDE8F08FCE
:104B00004FF0F00B91FBFBFA4FF0000C0026002059
:104B100003E033F810B0DC44401C8842F9D3BCFBFE
:104B2000F0F50027002020E04FF00009002418E0F5
:104B300003EB400B3BF814B0AB4506D903EB400B3D
:104B40003BF814B0ABEB050B05E003EB400B3BF877
:104B500014B0A5EB0B0BD846C84500D9C146474455
:104B6000641CF02CE4D34E44F0308842DCD34FF088
:104B7000A00B91FBFBFBB7FBFBF7B6FBFAF615604E
:104B8000968007EB470B0BEBC70B4FF00A0EBBFBF6
:104B9000FEFBC2F808B04FF0020BA2F806B000BF4F
:104BA000ACE700002DE9F041002605270024FFF7BF
:104BB000A9FA4FF61F01384600F06EFAC1E000F086
:104BC00079FC604800F06EFB78B14FF4FC615E4800
:104BD00001874FF6E07007EB47015B4A02EB81016A
:104BE0000881FFF737FABDE8F0815748303000F010
:104BF00059FB002840D09620FFF7DCF906BB52484D
:104C00003030FDF71BFD51A14F483030FDF721FD3D
:104C100001264C483038FDF711FD4FA14948303886
:104C2000FDF717FD47482438FDF708FD45480C38C7
:104C3000FDF704FD4AA143480C38FDF70AFD80E06A
:104C400041483030FDF7FAFC48A13F483030FDF7CD
:104C500000FD002600243B483038FDF75DFD394853
:104C60002438FDF759FD37481838FDF755FD35480C
:104C70000C38FDF751FD64E03248303800F012FB8B
:104C8000002843D0012E41D100F026F92D483038BC
:104C9000FDF7D4FC38A12B483038FDF7DAFC781F3B
:104CA000374901EB803000EB04384146354800F0CD
:104CB000C9F9C0B9601CC4B222480C38FDF7BEFC6B
:104CC000224631A11F480C38FDF734FD042C00D1D9
:104CD00000241C481838FDF7B1FC2EA119481838DB
:104CE000FDF7B7FC08E017481838FDF7A7FC2CA122
:104CF00014481838FDF7ADFC12483038FDF79EFC1B
:104D000015A110483038FDF7A4FC1AE0CEB90525EE
:104D100014E005EB45010C4A02EB810000F0C2FAF9
:104D200058B14FF6E071384600F0B6F9EFB24FF6E1
:104D30001F01384600F0B0F902E06D1C162DE8D9CD
:104D400000BF3CE78E0100204A000020CDA3D6B969
:104D5000D1B5C1B700000000BFAACABC0000000066
:104D6000D2D1D1B5C1B730B4CE000000BFAACABC01
:104D7000D1B5C1B700000000CCE1C8A1D6D0000079
:104D800000000308DC010020D2D1D1B5C1B72564F1
:104D9000B4CE0000D3EFD2F4D3D0D0A700000000EF
:104DA000D3EFD2F4CEDED0A70000000038B5002447
:104DB000FFF7D6F964E000F07DFB324800F072FAAC
:104DC00010B1FFF747F938BD2E48303800F06AFAC5
:104DD000002855D000F080F82A483038FDF72EFC26
:104DE00029A128483038FDF734FC6946284800F0EE
:104DF0006BF905460098401C28D0641C21481830E7
:104E0000FDF71CFC2A4623A11E481830FDF792FC32
:104E10001C482430FDF712FC21A11A482430009AC6
:104E2000FDF788FC17481838FDF708FC1FA1154846
:104E30001838FDF70EFC13480C38FDF7FFFB22462F
:104E40001DA110480C38FDF775FC10E00D48183016
:104E5000FDF762FC0B482430FDF75EFC094818386A
:104E6000FDF7ECFB17A107481838FDF7F2FB0548E2
:104E70003038FDF7E3FB16A102483038FDF7E9FBB7
:104E800099E700008E010020CAB6B1F0D6D000002C
:104E9000DC010020CAB6B1F0BDE1B9FB3A257300D0
:104EA000C6A5C5E4BEE0C0EB3A256400D3EFD2F45A
:104EB000D3D0D0A700000000D2D1CAB6B1F025648B
:104EC000B4CE0000D3EFD2F4CEDED0A700000000B5
:104ED000BFAACABC0000000010B54FF49670FFF7DF
:104EE00069F801211348FEF79AF81348FDF7A6FB6D
:104EF00012A11148FDF7ADFB4FF49670FFF75AF879
:104F00004FF61F010C480C3000F0D6F800BF02200D
:104F1000FDF760F80028FAD000210648FEF77FF878
:104F20000220FCF797FF4FF6E07103480C3000F0C9
:104F3000C3F810BD002C01405E010020C2BCD2F4B9
:104F4000D6D000002DE9F04106460C466005400D24
:104F500005D12A48844202D32948844205D929A090
:104F6000FEF766F90320BDE8F081708800EB400091
:104F7000C700FDF741F93420FDF7C6F800250DE024
:104F80004FF4006101FB0540FDF7C4F8042804D08C
:104F900021A0FEF74DF90320E5E76D1C022DEFD3AC
:104FA00043F239012046FDF705F9042804D01FA07B
:104FB000FEF73EF90320D6E7A41C71882046FDF7D2
:104FC000F9F8042804D019A0FEF732F90320CAE743
:104FD000A41C00250CE0321D515B6019FDF7EAF8B6
:104FE000042804D011A0FEF723F90320BBE7AD1C71
:104FF000BD42F0D3FDF7D4F80020B4E70000030869
:1050000000F00708666C6173682061646472206553
:1050100072726F7200000000666C617368204572E6
:10502000617365204572726F72212000666C617336
:10503000682050726F6772616D204572726F7221C5
:105040002000000070B504460D46104A4FF416616A
:105050002046FFF747FD0D4B0D4A4FF47A5120468D
:10506000FEF7E4F90A48406808B9012070BD074A14
:1050700008490748FFF702FA0648408808B90220A5
:10508000F4E729460348FFF75DFFEFE7DC7E0020E9
:10509000E87E0020007F002070B504460D4604EB3A
:1050A0004400044901EB800005812046FEF7B8FF6B
:1050B00070BD00004A00002070B504460D462581F1
:1050C0002046FDF7BBFA70BD2DE9F05F83460E4622
:1050D0002A4A4FF416615846FFF704FD274B284A29
:1050E0004FF47A515846FEF7A1F92548406840B977
:1050F0004FF0FF30306023A0FEF79AF80020BDE8A3
:10510000F09F1E4A22491E48FFF7B8F92048408800
:1051100038B94FF0FF3030601EA0FEF789F800204C
:10512000EDE7002700254FF0FF381D4C17E0A146A2
:105130004C46B9F80000A0F54051393904D1494630
:105140001348FFF741F801E04FF0FF308246C245B7
:1051500001D2D0463D46781C87B204F580541148F0
:105160008442E4D32846E91705EB91718D10C6F807
:10517000008005EB45000C490844C0E7DC7E0020B8
:10518000E87E0020564144206661696C20000000E2
:10519000007F00204D464343206661696C2000007B
:1051A00000000308000008080000002000B587B0D8
:1051B0004FF48050ADF8180010208DF81B0003202C
:1051C0008DF81A0006A91E48FDF7A2F94FF4805188
:1051D0001B48FDF72FFA4FF46040ADF81800182077
:1051E0008DF81B0003208DF81A0006A91448FDF75E
:1051F0008FF90020ADF804004FF48270ADF806007E
:105200000020ADF808000220ADF80A000120ADF83A
:105210000C004002ADF80E001820ADF81000002080
:10522000ADF812000720ADF8140001A90548FDF7FC
:1052300036FE01210348FDF7FEFD07B000BD00006A
:10524000000C01400038004070B50546FCF7F5F948
:10525000044620F00040C0F1FF40C00F08D025F008
:105260000040C0F1FF40C00F04BF0120FEF738FA34
:10527000204670BD0EB501210846FDF73DFD4FF6F5
:10528000FF70ADF8040048F6A040ADF80000002023
:10529000ADF80600ADF8020069464FF08040FDF71A
:1052A00025FF0EBD014608880D4A1288904214DA87
:1052B00008888A8810440A4A128890420DDD48887E
:1052C000084A1288904208DA4888CA881044054A79
:1052D0001288904201DD012070470020FCE70000A9
:1052E000BE010020C00100202DE9F0418AB0074630
:1052F0008846002439E080216B48FDF79BF9D021D6
:105300006A48FDF7A4FD00216848FDF7A0FD0546A9
:105310002D0200216548FDF79AFD0543ED08902117
:105320006248FDF794FD00216048FDF790FD0646B8
:10533000360200215D48FDF78AFD0643F60880210C
:105340005948FDF779F9642D0FD9B5F57A6F0CD26C
:10535000642E0AD9B6F57A6F07D205A921F8145040
:10536000B0B22DF81400601C84B20A2C05DA40217A
:105370004D48FDF756F90028BDD00A2C7ED10024F7
:1053800027E005A830F8141005AA601C32F81000B8
:1053900081420BDD05A830F8145005A9601C31F8D6
:1053A000100021F81400601C21F810503DF8141072
:1053B000601C3DF81000814209DD3DF81460601C5E
:1053C0003DF810002DF81400601C2DF81060601CD2
:1053D00084B2092CD5DB082427E005A830F8141086
:1053E000601E05AA32F8100081420BDA05A830F8D9
:1053F0001450601E05A931F8100021F81400601E39
:1054000021F810503DF81410601E3DF81000814244
:1054100009DA3DF81460601E3DF810002DF8140004
:10542000601E2DF81060601E84B2002CD5DC0025B3
:105430000026012408E005A830F8140005443DF8D2
:1054400014000644601C84B2092CF4DBED08F60855
:10545000A6F59170C0EB0010000140F64851B0FB7A
:10546000F1F03880A5F5C87000EB8000800140F6AF
:105470005C51B0FBF1F0C0F5A07000E011E0A8F8BD
:1054800000000B480078012807D13C88B8F80000DC
:105490003880C4F1F000A8F8000001200AB0BDE88F
:1054A000F0810020FAE70000000C014000300140CC
:1054B000C201002010B51EE000BF40210F48FDF7DB
:1054C000B0F80028F9D10E490E48FFF70DFF90B152
:1054D0000B4802880B4801880BA0FDF7A9FE03E0EA
:1054E00007490848FFF700FF40210448FDF799F8F5
:1054F0000028F5D000E0DFE700BF10BD000C014040
:10550000C0010020BE0100206C6566743D25642C3E
:1055100020746F703D25640D0A00000020032403F1
:105520002E03400359037903A103CF03040440046D
:105530008304CC041C057205CE05310699060807C4
:105540007B07F5077308F70880090D0A9E0A340BDC
:10555000CE0B6B0C0C0DB00D570E010FAD0F5B1089
:105560000C11BE1171122513DA1390144515FB1599
:10557000B01665171918CC187D192C1AD91A841B66
:105580002D1CD21C751D141EB01E471FDB1F6A2068
:10559000F5207B21FD217922EF226023CC233124C9
:1055A0009124EA243D258A25D0250F2647267926F1
:1055B000A426C726E426FA2608270F270F27082740
:1055C000FA26E426C726A426792647260F26D025C4
:1055D0008A253D25EA2491243124CC236023EF221F
:1055E0007922FD217B21F5206A20DB1F471FB01E99
:1055F000141E751DD21C2D1C841BD91A2C1A7D1942
:10560000CC1819186517B016FB1545159014DA1348
:1056100025137112BE110C115B10AD0F010F570E47
:10562000B00D0C0D6B0CCE0B340B9E0A0D0A8009CD
:10563000F7087308F5077B07080799063106CE05BA
:1056400072051C05CC04830440040404CF03A103A9
:105650007903590340032E03240320030B00160093
:1056600021002C00370042004D00580063006E00FE
:10567000790086009800AB00BF00D600ED0007015E
:105680002301410162018501AB01D401000000004A
:10569000000000000000000000000000000000000A
:1056A00000005B00B60011016C01C70121027C0201
:1056B000D70232038D03E8038D033203D7027C0245
:1056C0002102C7016C011101B6005B0000005B0004
:1056D000B60011016C01C70121027C02D70232031E
:1056E0008D03E8038D033203D7027C022102C70138
:1056F0006C011101B6005B0000005B00B6001101F7
:105700006C01C70121027C02D70232038D03E8033A
:105710008D033203D7027C022102C7016C01110103
:10572000B6005B0000005B00B60011016C01C70110
:1057300021027C02D70232038D03E8038D0332037A
:10574000D7027C022102C7016C011101B6005B0087
:1057500000005B00B60011016C01C70121027C0250
:10576000D70232038D03E8038D033203D7027C0294
:105770002102C7016C011101B6005B0000004D0061
:105780009A00E70034018101CE011A026702B402D7
:1057900001034E039B03E803B003790341030A03AB
:1057A000D2029B0263022C02F401BC0185014D016F
:1057B0001601DE00A7006F00380000003500690008
:1057C0009E00D30007013C017001A501DA010E0221
:1057D00043027802AC02E10215034A037F03B303DC
:1057E000E803B603840352032003EE02BC028A02DC
:1057F00058022602F401C20190015E012C01FA0058
:10580000C80096006400320000002B0057008200A0
:10581000AE00D900050130015C018701B301DE0152
:105820000A02350261028C02B802E3020F033A0356
:1058300066039103BD03E803BD03910366033A03C6
:105840000F03E302B8028C02610235020A02DE0194
:10585000B30187015C0130010501D900AE0082006F
:1058600057002B00000026004D0073009A00C00076
:10587000E7000D0134015A018101A701CE01F401B5
:105880001A02410267028E02B402DB0201032803FE
:105890004E0375039B03C203E803C403A1037D0306
:1058A000590335031203EE02CA02A70283025F0204
:1058B0003B021802F401D001AD01890165014101EB
:1058C0001E01FA00D600B3008F006B0047002400D1
:1058D00000002100430064008500A700C800E90023
:1058E0000B012C014D016F019001B101D301F401B5
:1058F00015023702580279029B02BC02DD02FF0248
:105900002003410363038403A503C703E803CA0319
:10591000AB038D036F03500332031403F602D70267
:10592000B9029B027C025E02400221020302E501F1
:10593000C701A8018A016C014D012F011101F2007C
:10594000D400B600980079005B003D001E00000006
:105950001D003900560072008F00AB00C800E50042
:1059600001011E013A01570173019001AD01C90106
:10597000E60102021F023B02580275029102AE02CA
:10598000CA02E702030320033D035903760392038F
:10599000AF03CB03E803CE03B30399037F03640390
:1059A0004A0330031503FB02E102C702AC02920274
:1059B00078025D02430229020E02F401DA01BF01FE
:1059C000A5018B01700156013C0121010701ED0089
:1059D000D300B8009E00840069004F0035001A0013
:1059E000000018003100490062007A009200AB000C
:1059F000C300DC00F4000C0125013D0155016E01DE
:105A000086019F01B701CF01E801000219023102AE
:105A1000490262027A029302AB02C302DC02F40280
:105A20000C0325033D0356036E0386039F03B70350
:105A3000D003E803D103BB03A4038D037603600303
:105A4000490332031B030503EE02D702C102AA0277
:105A500093027C0266024F02380221020B02F4011B
:105A6000DD01C701B001990182016C0155013E01C0
:105A700027011101FA00E300CD00B6009F00880065
:105A800072005B0044002D00170000005B00B600B0
:105A900011016C01C70121027C02D70232038D0380
:105AA000E8038D033203D7027C022102C7016C0197
:105AB0001101B6005B0000005B00B60011016C0133
:105AC000C70121027C02D70232038D03E8038D0354
:105AD0003203D7027C022102C7016C011101B6001A
